:100000000C94D7020C941E030C941E030C941E0334
:100010000C941E030C941E030C941E030C941E03DC
:100020000C941E030C941E030C9478260C944B27FE
:100030000C941D1F0C941E030C941E030C941E03A1
:100040000C941E030C941E030C941E030C941E03AC
:100050000C941E030C94831F0C941E030C941E031B
:100060000C941E030C941E030C941E030C941E038C
:100070000C941E030C941E030C941E030C941E037C
:100080000C941E030C941E030C941E030C941E036C
:100090000C941E030C941E030C941E030C941E035C
:1000A0000C941E030C941E030C941E03076342362B
:1000B000B79BD8A71A39685618AEBAAB558C1D3CF9
:1000C000B7CC5763BD6DEDFD753EF6177231BF00BD
:1000D0000000803F08000000BE922449123EABAAF7
:1000E000AA2ABECDCCCC4C3E00000080BEABAAAA52
:1000F000AA3E00000000BF000000803F000000009A
:1001000000084178D3BB4387D1133D190E3CC3BDD2
:100110004282AD2B3E68EC8276BED98FE1A93E4C7F
:1001200080EFFFBE01C4FF7F3F0000000000687445
:100130007470733A2F2F634B6579732E6F7267015A
:10014000284D616B696E672070656F706C652073F8
:100150006D696C65206F6E65206B6579626F617289
:100160006420617420612074696D652E0128634BE1
:10017000657973206973206120766F6C756E746584
:1001800065722072756E2035303128632928332935
:10019000206E6F6E70726F6669742E01280068653C
:1001A0006C70012800666C757368012800707269B4
:1001B0006E7401280061626F75740128005F006031
:1001C00000610054415C005D005E00550059005A1A
:1001D000005B005600620063006700570002530195
:1001E000000100010004530100010001000553015A
:1001F000000100010006530100010001000100019F
:1002000000010001000100010001000353275C010F
:100210000001000100265C01000100295C100010B3
:10022000001000100010001000100010001000104E
:1002300000100010001000100010001000F8000165
:1002400000F90001000100F400F000F500F700F2F1
:1002500000F100F300F600FB00FA00FC000100E0F2
:100260005C01000100DE5CE15C010001000100E2D4
:100270005C01000100DD5CE35C01000100005C0149
:100280000001000100E45C01000100010001000127
:10029000000100225C010001000100215C0000005F
:1002A00000000000002A2B280000000000000000D1
:1002B000000000000000000029000000002C1E3497
:1002C00020212224342627252E362D3738271E1F9D
:1002D000202122232425263333362E37381F0405C8
:1002E000060708090A0B0C0D0E0F10111213141536
:1002F000161718191A1B1C1D2F3130232D35040514
:10030000060708090A0B0C0D0E0F10111213141515
:10031000161718191A1B1C1D2F3130354C00000000
:1003200000000000000000000000000000000000CD
:1003300000000000000000000000000000000101BB
:1003400001010101000101010100000000000000A5
:100350000000000000000001000100010101010196
:10036000010101010101010101010101010101017D
:100370000101010101010101000000010100000073
:10038000000000000000000000000000000000006D
:10039000000000000000000001010101000A00014E
:1003A0004A0022206E6F7420666F756E640A0063C7
:1003B0006F6D6D616E642022002000636F6D6D6152
:1003C0006E647320617661696C61626C653A0A20C3
:1003D000200042756666657220436C6561726564D3
:1003E000210A000A002E2000290A00202800307867
:1003F00000323031392D30312D30342D32303A3217
:10040000353A3033000A014A20204275696C743A4B
:100410002000302E362E3230342D31392D67626176
:10042000346135392D646972747900202076005169
:100430004D4B204669726D776172650A000A0004AF
:1004400003300000000C0363006B0065007900734B
:10045000000000080359006F007500000004030944
:100460000409023B00020100A0FA09040000010394
:10047000010100092111010001224000070581034B
:1004800008000A090401000103000000092111010C
:10049000000122C0000705820320000A120110019A
:1004A00000000008EDFE606001000102030105018B
:1004B0000902A10185020901A10005091901290507
:1004C00015002501950575018102950175038101CE
:1004D0000501093009311581257F950275088106CE
:1004E00009381581257F950175088106050C0A38A4
:1004F000021581257F950175088106C0C005010997
:1005000080A10185031601002603001A81002A83B9
:1005100000751095018100C0050C0901A101850439
:10052000160100269C021A01002A9C0275109501F2
:100530008100C005010906A1018505050719E0290B
:10054000E7150025019508750181020508190129A3
:10055000059505750191029501750391010507192E
:100560000029EF1500250195F075018102C00501F4
:100570000906A101050719E029E7150025019508DD
:100580007501810295017508810105081901290588
:1005900095057501910295017503910105071900F3
:1005A00029FF150026FF00950675088100C011245B
:1005B0001FBECFEFDAE0DEBFCDBF04B603FE27C01B
:1005C00080912F0890913008A0913108B0913208A5
:1005D0008730904BA740B04BD1F410922F08109267
:1005E0003008109231081092320814BE84B7877F09
:1005F00084BF0FB6F894A8958091600088618093BD
:100600006000109260000FBEE0E0F8E3099514E08E
:10061000A0E0B1E0E0E1F5E602C005900D92AA3855
:10062000B107D9F728E0AAE8B4E001C01D92AF32C3
:10063000B207E1F70E94A6230C9437320C94000015
:10064000FB01823E2CE5920729F148F4803E2CE51F
:10065000920791F0813E9C45B9F081E00895833E78
:100660002CE59207E9F0843E9C45B9F78281882306
:10067000A1F38EE291E005C08281882371F385EBBE
:1006800091E00E94EB03E9CF8281882331F38DEA68
:1006900091E0F7CF8281882301F385EA91E0F1CFE1
:1006A00082818823D1F28EE991E0EBCF81E0089539
:1006B0000C942003CF9390E0FC01E356FD4FC491CE
:1006C000835E9C4FFC018491882369F081EE0E9437
:1006D0008B138C2F0E948B138C2F0E94941481EE0D
:1006E000CF910C9494148C2F0E948B138C2FF8CFE5
:1006F000FF920F931F93CF93DF93EC01F62E888127
:10070000882331F18E010F5F1F4F813041F4C98181
:100710008C2F0E948B138C2F0E94941405C0823062
:1007200079F489810E948B13E80121968F2D8150E5
:1007300030F3EFE9FFE03197F1F700C00000F7CFA9
:10074000833011F48981E8CF0E945A038E01ECCFE7
:10075000DF91CF911F910F91FF90089560E00C946D
:100760007803FF920F931F93CF93DF938C01F62EA4
:10077000F8018491882349F1E8012196813049F4F8
:10078000FE011491812F0E948B13812F0E949414DB
:1007900006C0823089F4FE0184910E948B138E0181
:1007A0000F5F1F4F8F2D815018F3EFE9FFE0319756
:1007B000F1F700C00000F7CF833019F4FE018491F7
:1007C000E5CF0E945A03E801EACFDF91CF911F9154
:1007D0000F91FF90089560E00C94B1030E94C41D36
:1007E000811102C00E943B1E0E94680B0C945208AB
:1007F0000E94100D0C94550808950C94FC030C9461
:10080000FD030895CF93DF930E9490170E94D50CAB
:100810000E944D1FEC0140E063E070E084E391E052
:100820000E94FB0A0E940104CE010E94591F8A3FC8
:10083000910530F00E94830BDF91CF910C94A71F9C
:100840008FE99FE00197F1F700C00000EDCFFF9224
:100850000F931F93CF93DF938C01FC01C081D18153
:100860008091680581115EC08281882309F455C09A
:10087000CE010E94A11CF82E682FCE010E944E1CB2
:10088000BE018F2D0E94E905EC01B8010E94B00A5B
:10089000882309F4A2C0B801CE010E94580388231E
:1008A00009F49BC0B801CE010E946A09882309F4AB
:1008B00094C0B801CE010E94740D882309F48DC044
:1008C000B801CE010E942911882309F486C0C63DD3
:1008D000FCE5DF0709F423C108F041C0C531ECE5B0
:1008E000DE0728F5C230FCE5DF0708F095C0C1152A
:1008F0008CE5D80709F46CC0C130DC4509F474C03C
:1009000081E08093910480939204C801DF91CF919C
:100910001F910F91FF900C945603CE010E947A1CF8
:10092000F82EAECFCE010E94A11CBE01ABCFC631C6
:10093000DC4531F70E94881DF8019281992309F462
:100940003AC18A7A91E009F490E090938C04811185
:1009500030C189E20E94111D0E94551D3EC0CB3D51
:100960008CE5D80709F44AC020F5C73DFCE5DF0750
:1009700009F4FCC0C83DDC4519F6F80182818111FB
:10098000F9C080919204811112C180918F049091DD
:1009900090040E94591F883C910508F008C180E22C
:1009A0000E94F11488E20E948B1388E20E94941442
:1009B00014C0CC3DECE5DE0749F1CF3DDC4509F044
:1009C0009FCFF8018281882341F00E943B1E05C021
:1009D000F801828181110E94020480E0DF91CF91B1
:1009E0001F910F91FF900895F80182818823A9F348
:1009F0008091D80581608093D805EFCFF80182817E
:100A0000882359F380E00E944224E7CFF8018281D5
:100A1000882319F382E0F7CFF8018281882309F453
:100A200074CF0E94C41D811102C00E943B1E0E940F
:100A3000D71D90E090931F0880931E08FE01E3509D
:100A4000FC45E231F10520F4E75CFD4C0C94AB2C45
:100A500080911E08816080931E0828C080911E0826
:100A60008260F9CF80911E088460F5CF80911E08C6
:100A70008860F1CF80911E088061EDCF80911E08C3
:100A80008062E9CF80911E088064E5CF80911E08C6
:100A90008068E1CF80911E088C6080931E0840E042
:100AA00064E070E084E091E00E94FB0A80911E08FF
:100AB0000E94DB1D0E94901790CF80911E088E7FB0
:100AC000CACF80911E088D7FC6CF80911E088B7F74
:100AD000C2CF80911E08877FBECF80911E088F7E77
:100AE000BACF80911E088F7DB6CF80911E088F7B74
:100AF000B2CF80911E088F77AECF80911E08837F82
:100B000080931E0840E062E070E084E291E0CCCF88
:100B100090911E08892F97FB87F980589CCFF80188
:100B20008281882361F0109291040E944D1F90935E
:100B30008E0480938D0482E00E94EA144ECF80914F
:100B4000910481110FC080918D0490918E040E94B8
:100B5000591F883C910530F486E20E948B1386E28F
:100B60000E94941482E00E94F11437CFF801828130
:100B7000882351F0109292040E944D1F909390048C
:100B800080938F0480E2D8CF8091920481110FC0AE
:100B900080918F04909190040E94591F883C910588
:100BA00030F487E20E948B1387E20E94941480E263
:100BB000DACF85E3CFCE80918C04811104C089E225
:100BC0000E94181DC9CE85E3FBCF90E080E0089518
:100BD000089524E0829FC0011124FC01E70FF11D5C
:100BE000EE0FFF1FEE0FFF1FE60FF11DEE0FFF1FB1
:100BF000E354FE4F859194910895FC01EE0FFF1F81
:100C0000E356FC4F859194910895CF93DF930E9412
:100C1000E9050E94B307EC01811520E5920708F071
:100C200042C0811530E4930708F00FC1883E91055A
:100C300028F5803E910508F09BC0883A910588F41C
:100C4000853A910508F08AC08130910509F490C079
:100C5000009709F48DC0049708F08AC0D0E0C0E086
:100C600087C08F3B910508F487C0805C9109C03C28
:100C7000D105A0F30E94FD05EC017AC081159042D8
:100C800050F4C11581E0D80708F072C0C03FD1050B
:100C900028F3D0656DC0C11590E3D90708F0CBC02B
:100CA000CE019F70E7CF811525E5920758F5811594
:100CB00034E5930708F0F8C0811542E5940750F435
:100CC000C11581E5D80708F4C3C0DC2FCC27C16F5C
:100CD000D06A4EC0982F969596959E012370332723
:100CE000C115D34508F0D1C0C1E0D0E002C0CC0F9F
:100CF000DD1F2A95E2F720E2929FC0011124C82B44
:100D0000D92BC1C0C11589E5D80780F4C11598E574
:100D1000D90708F0CEC0C11526E5D20708F09ECF4E
:100D2000DC2FCC27CC27DF71D06222C0CE01C115C9
:100D30003AE5D30708F4C2C090568115904208F0F6
:100D40008DCF8D2F8F710E942E0890E0982F8827CD
:100D500088279F719C012C2BE901E6CF853A9105EC
:100D600009F4B6C0863A910509F0B5C0C2E8D0E4EE
:100D7000CE01DF91CF910895883A910509F4AEC074
:100D8000893A910509F4ADC08A3A910509F4ACC0DD
:100D90008B3A910509F4ABC08C3A910509F4AAC0CD
:100DA0008B3B910509F4A9C08C3B910509F4A8C0BF
:100DB0008D3A910509F4A7C0803B910509F4A6C0BE
:100DC0008E3A910509F4A5C08F3A910509F4A4C0A3
:100DD000813B910509F4A3C0823B910509F4A2C0AF
:100DE000833B910509F4A1C0843B910509F4A0C09F
:100DF000853B910509F49FC0863B910509F49EC08F
:100E0000873B910509F49DC0883B910509F49CC07E
:100E1000893B910509F49BC08D3B910509F49AC06B
:100E20008E3B910509F499C08A3B910509F498C05D
:100E3000C0E0D4E49DCFCE019927D3FF03C0EC01DD
:100E4000D86C96CFEC01D06C93CFDF70D06A90CF86
:100E5000CE01E4E096958795EA95E1F783702C2F13
:100E600026952695237090E2299F90011124382B16
:100E70008C2F8370C1E0D0E002C0CC0FDD1F8A95BB
:100E8000E2F7C22BD32BDC6873CFC1E0D0E002C005
:100E9000CC0FDD1F2A95E2F730E2939FC0011124A9
:100EA000C82BD92BDA6864CFD82FCC27C46FD06A6F
:100EB0005FCFDC2FCC27C06FD06A5ACF34E0969535
:100EC00087953A95E1F78F70CF70C06ED82FBECF5F
:100ED000C1E8D0E44DCFC3E8D0E44ACFC2EED4E4B9
:100EE00047CFC9EED4E444CFCAEED4E441CFC5EB3A
:100EF000D4E43ECFC6EBD4E43BCFC3EBD4E438CF4D
:100F0000C4EBD4E435CFC7EBD4E432CFCCECD4E49B
:100F10002FCFCDECD4E42CCFC3E8D5E429CFCAE859
:100F2000D5E426CFC2E9D5E423CFC4E9D5E420CF68
:100F3000C1E2D6E41DCFC3E2D6E41ACFC4E2D6E4C0
:100F400017CFC5E2D6E414CFC6E2D6E411CFC7E28C
:100F5000D6E40ECFCFE6D4E40BCFC0E7D4E408CF7D
:100F6000CAE2D6E405CF8238910549F1B0F4813365
:100F7000910509F462C048F48932910509F456C01C
:100F80008A32910509F460C008958533910509F40A
:100F900046C08933910599F00895833E910531F15A
:100FA00038F4803E910591F0823E9105B1F00895AC
:100FB000863E910521F1873E910551F108952091DA
:100FC0001E082370D9F080EE90E0089520911E084D
:100FD00020FF14C089E390E0089520911E0822FFAD
:100FE0000DC024FD09C083EE90E0089520911E08F5
:100FF00022FD31C024FF02C090E080E008952091DE
:101000001E0823FFFBCF24FDF7CF87EE90E0089565
:1010100020911E0823FFEECF86EE90E008952091E8
:101020001E0825FFEBCF89E290E0089520911E086D
:1010300025FFE4CF85E390E0089520911E0826FF68
:10104000DDCF8AE290E0089520911E0826FFD6CFDA
:1010500081E390E0089582EE90E0089590911E085B
:1010600092FF06C0282F2871283069F4877F84609A
:1010700093FF06C0282F2871283161F4877E846190
:1010800094FD877E0895282F2471243089F78B7F63
:101090008860EECF282F2471243191F78B7E8861F0
:1010A000EFCF08950C94510808950C945408CF93F1
:1010B000DF93A4ECB3E028EC33E061E070E09D91B5
:1010C000E92FE295EF70F0E041A19F70EB0102C0C3
:1010D000CC0FDD1F9A95E2F7CE018095842381A382
:1010E0002A173B0761F7A0ECB3E044EC53E0C1E002
:1010F000D0E08D91E82FE295EF70F0E061A18F7064
:101100009E0101C0220F8A95EAF7922F90959623AF
:1011100091A382A1822B82A34A175B0751F71092F9
:1011200097041092930410929804109294041092D1
:1011300099041092950410929A0410929604DF91EB
:10114000CF910C94EE036F927F928F929F92AF9209
:10115000BF92CF92DF92EF92FF920F931F93CF93A4
:10116000DF9333E9632E34E0732E44ECE42E43E046
:10117000F42E01E010E0DD24D394E301C9903E0198
:10118000DE011E92F70181917F01E82FE295EF7059
:10119000F0E091A18F70A80101C0440F8A95EAF791
:1011A000892F842B81A382A1842E8094882182A3FD
:1011B00080EA8A95F1F760EC73E090E080E0EB0163
:1011C0003991BE01A32EA2942FE0A222B12CE501F9
:1011D00028A19C903F70580101C0AA0C3A95EAF7EB
:1011E000A22220E031F4202F082E01C0220F0A9401
:1011F000EAF729292C9301968430910501F781A102
:10120000882181A382A1482B42A38C91C81641F06A
:10121000D0929B040E944D1F90939D0480939C0448
:10122000D7E96D16D4E07D0609F0A7CF80919B0425
:101230008823D1F080919C0490919D040E94591FB5
:10124000069790F080919304809397048091940482
:1012500080939804809195048093990480919604DA
:1012600080939A0410929B040E94F80381E0DF911E
:10127000CF911F910F91FF90EF90DF90CF90BF9093
:10128000AF909F908F907F906F900895E82FF0E03F
:10129000E956FB4F8081089508958554990BBC0150
:1012A000990F880B990B0E94DC2920E030E040E484
:1012B00051E40E9468299B01AC0160E070E080E08D
:1012C00090E40E940C2B20E030E04CE554E40E94B6
:1012D0009F2A0895FB018D312CE5920739F4828114
:1012E0008823A1F10E949A0C80E008958E312CE5AC
:1012F000920731F48281882349F10E94AA0CF4CF2D
:101300008F312CE5920741F482818823F9F00E9405
:10131000960C8111F2CFE6CF8A322CE5920769F460
:101320008281882399F00E94C30C40E064E070E061
:101330008CE491E00E94FB0AD7CF8B329C4531F4BC
:101340008281882319F00E94CC0CEFCF81E00895B0
:101350000E944D094FE050E00C94460C0E944D094C
:101360000C94B40B0C94830B0895CF92DF92EF9200
:10137000FF9280910905811177C080910805811144
:1013800073C0609180017091810180918201909180
:1013900083019B01AC010E94F7286B017C010E9434
:1013A000FD2CBC01990F880B990B0E94DC2920E0D1
:1013B0003EEF4FEF56E40E94682920917C01309166
:1013C0007D0140917E0150917F010E949F2A20E083
:1013D00030E040E85FE30E94F728A70196010E94F1
:1013E0009F2A60936C0170936D0180936E019093BE
:1013F0006F010E94FD2CBC01990F880B990B0E9474
:10140000DC2920E03EEF4FEF56E40E94682920914E
:101410007C0130917D0140917E0150917F010E94BD
:101420009F2A20E030E040E85FE30E94F728209107
:1014300080013091810140918201509183010E948D
:101440009F2A609374017093750180937601909345
:10145000770140E062E070E08CE691E0FF90EF9071
:10146000DF90CF900C94FB0AFF90EF90DF90CF902D
:101470000895CF92DF92EF92FF9229E038E348E996
:101480005FE3609180017091810180918201909170
:1014900083010E949F2A6B017C0120E030E84BEB26
:1014A00054E40E94632987FF08C0C0928001D09253
:1014B0008101E0928201F0928301FF90EF90DF9032
:1014C000CF900895CF92DF92EF92FF9229E038E318
:1014D00048E95FE360918001709181018091820110
:1014E000909183010E9468296B017C0120E030E02B
:1014F00042E852E40E949A2A181644F4C0928001ED
:10150000D0928101E0928201F0928301FF90EF90EE
:10151000DF90CF90089580E090E0ACEDB3E480934D
:10152000800190938101A0938201B093830108957B
:1015300090910C06892F8D7F91FF826080930C061D
:101540000C94E41D80910C06826080930C060C9430
:10155000E41D80910C068D7F80930C060C94E41D95
:101560000F931F93CF93DF938C01EB0100328CE537
:10157000180769F48A8181110E94980A04321C4577
:10158000C1F48A818823A9F00E94620A12C0013244
:101590008CE5180731F48A81882381F30E94A20A1E
:1015A000EDCF02328CE51807C1F48A8181110E94C7
:1015B000A90A80910C0681FF04C08A8181110E94D2
:1015C000B50981E0DF91CF911F910F9108958A8134
:1015D000882379F30E948B0AECCF05328CE518073B
:1015E000B1F303328CE5180749F68A81882309F3A1
:1015F0000E94390ADECFCF92DF92EF92FF92CF9313
:10160000DF93EC016B01F42E8091A004811102C0E4
:101610000E94680B80910C0680FF53C08091AC043F
:1016200081110E94830B81E08093AD04D0930B065F
:10163000C0930A06D0920906C0920806F0920F06DF
:101640001092AE041092AF041092B0041092B10444
:101650001092A10488819981AA81BB818093A804FA
:101660009093A904A093AA04B093AB0420E030E0C7
:1016700040E85EE36C817D818E819F810E949F2A7C
:101680006B017C016091BC0170E090E080E00E9401
:10169000DA2920E030E048EC52E40E9468299B01FE
:1016A000AC01C701B6010E949F2A6093A404709305
:1016B000A5048093A6049093A7041092A30410920B
:1016C000A204DF91CF91FF90EF90DF90CF9008952B
:1016D0000E94C41D811102C00E943B1E0E94E01D99
:1016E00080930C069091A004911103C091E0909317
:1016F000A00480FF07C040E063E070E084EA91E06E
:101700000C94FB0A08958091A004811102C00E94EC
:10171000680B1092EF041092EE041092AD04109238
:10172000AC041092E8041092E9041092EA041092BA
:10173000EB041092E4041092E5041092E604109277
:10174000E7041092E3041092E204E2ECF4E0A2EB6E
:10175000B4E011921192119211921D921D9284E0A7
:10176000E23EF807B1F70895CF92DF92EF92FF9231
:101770000F931F93CF93DF936B017C018091AC0497
:10178000882309F45CC08091A004811102C00E94EA
:10179000680B02EC14E0C7E0D0E0A7019601F80165
:1017A000648D758D868D978D0E946329811161C02E
:1017B000FE01EE0FFF1FEE0FFF1FEE53FB4F1082D7
:1017C000118212821382CC0FDD1FCE54DB4F19829F
:1017D000188284E0EE3DF807D9F58091EE049091EF
:1017E000EF04019797FD4DC09093EF048093EE04B2
:1017F0008091EE049091EF042091EC043091ED047F
:101800002817390724F01092ED041092EC04892B6C
:10181000B1F41092E8041092E9041092EA041092D4
:10182000EB041092E4041092E5041092E604109286
:10183000E7041092E3041092E2041092AC04DF91EA
:10184000CF911F910F91FF90EF90DF90CF9008956F
:1018500084819581A681B78181939193A193B1935E
:1018600010821182128213828A819B8189939993BB
:10187000AECF219704501109CF3FDC0709F08DCF7F
:10188000ACCF1092EF041092EE04B2CFCF92DF9261
:10189000EF92FF92CF93DF936B017C01EA0180917D
:1018A000A004811102C00E94680B80910C0680FF89
:1018B00036C08091EE049091EF04089784F58091F2
:1018C000AD0481110E94830B81E08093AC041092DF
:1018D0009F0410929E0420E030E0A901C701B601E8
:1018E0000E949A2A1816DCF48091EE049091EF047D
:1018F000FC01EE0FFF1FEE0FFF1FEE53FB4FC082E8
:10190000D182E282F382FC01EE0FFF1FEE54FB4F07
:10191000D183C08301969093EF048093EE04DF910E
:10192000CF91FF90EF90DF90CF90089580910C06BB
:101930008170089580910C06816080930C060E944E
:10194000E41D0E94B40940E062E070E084E991E0A7
:101950000C94FB0A40E062E070E084E891E00E94B1
:10196000FB0A2FEF81EE94E0215080409040E1F798
:1019700000C000000E94830B80910C068E7F809334
:101980000C060C94E41D8091F00490E001968770A1
:1019900099278093F00408958091F00490E00796D1
:1019A000877099278093F00408958091090581112B
:1019B0000C94B209089521E08F3F910508F020E0D2
:1019C000822F08950C94DB0C0E94D50C109209050F
:1019D00040E068E070E08DE392E00C94FB0A109226
:1019E000080540E068E070E08DEB91E00C94FB0AA4
:1019F0000E94D50C20915F0330E02F5F3F4F237092
:101A0000332720935F0348E2429FC001439F900D1C
:101A1000112440E065E070E083549D4F0C94FB0A74
:101A2000CF9380910505882309F442C08091F10489
:101A30009091F204009799F50E944D1F9093F20443
:101A40008093F104E091F3048091F4048150990BA8
:101A5000EE2321F02E2F2150330BC90120910905CF
:101A6000222389F0F0E0EB50FB4FC0818B509B4F5D
:101A7000FC0180810E94AE0980910905882319F03C
:101A80008C2F0E94A8098091F30490E00196609148
:101A9000F40470E00E94972C8093F30409C00E9424
:101AA000591F20915D0330915E032817390720F2FA
:101AB000CF910895089581E08093090540E068E0A2
:101AC00070E08DE792E00E94FB0A0C945A0D089595
:101AD00081E08093080540E068E070E08DEF91E0E0
:101AE0000E94FB0A0C94670DEF92FF921F93CF9315
:101AF000DF93CDB7DEB7A3970FB6F894DEBF0FBE66
:101B0000CDBF7C0186324CE59407A9F4DB01129627
:101B10008C91882309F458C00E945B0D80E0A39645
:101B20000FB6F894DEBF0FBECDBFDF91CF911F91EE
:101B3000FF90EF9008958732BCE59B0741F4FB01CD
:101B40008281882309F440C00E94E40CE7CF8832E8
:101B5000FCE59F0751F480910905DB0112969C91E9
:101B6000992391F18111F0CFD7CF8C32BCE59B073F
:101B700039F4FB018281882339F10E94680DCECFB0
:101B80008D32FCE59F0741F4DB0112968C9188238E
:101B9000D9F00E94EF0CC2CF8E32BCE59B0749F40E
:101BA000FB018281882381F0809108058111F1CFAA
:101BB000E4CF89329C4541F4DB0112968C91882355
:101BC00019F00E94F80CAACF20910905211105C037
:101BD00080910805882309F4DBC0FB01328133239F
:101BE00009F450C0F0EEEF16F10461F40E94D50C38
:101BF00081E080930705109206051092050510926A
:101C0000F4048CCF42EEE416F10471F40E94D50C7A
:101C100080910705882319F081E0809306051092D2
:101C20000705109205057ACF83EEE816F10491F4CA
:101C300080910605882331F10E94D50C109207058A
:101C400081E0809305051092F3041092F204109243
:101C5000F10464CF92E5E916F10451F480915D033B
:101C600090915E030A9790935E0380935D0356CF35
:101C7000A1E5EA16F10431F480915D0390915E03D1
:101C80000A96F1CF80915F0310916203811111C018
:101C9000135080916003180FFB018081180F418160
:101CA00084E090E0841B9109FCE08F9F100D1124CB
:101CB00014C0813071F5105E80916003180FDB0154
:101CC0008C91180F11964C9184E090E0841B91093F
:101CD000982F990F990F890F180F332309F451C0CA
:101CE000222319F0812F0E94A809809107058823DB
:101CF00051F08091F404E82FF0E0EB50FB4F10839B
:101D00008F5F8093F404C7010E94E20C91E0892761
:101D100006CF823071F4105E80916003180FFB01D2
:101D20008081180F418184E090E0841B9109F7E0E5
:101D3000BCCF833091F683E2EDE9F3E0DE0111964A
:101D400001900D928A95E1F7DB01EC9181E090E042
:101D50008C0F9D1F8E0F911DFC018091600390914F
:101D60006103E80FF91F13508081180F11964C91F1
:101D700084E090E0841B9109ACE08A9F100D11244F
:101D8000ACCF222309F4BFCF812F0E94AE09BBCF75
:101D900081E0C5CE10925C058DE394E00C94EB03DA
:101DA0008FE294E00E94EB038BE294E00E94EB034D
:101DB00082E194E00E94EB0385E094E00E94EB0353
:101DC00081EF93E00E94EB0388E893E00C94AE036C
:101DD000E8E8F6E080E991E0DF019C011D922150E6
:101DE0003040E1F782ED93E00C94EB03CF93DF9367
:101DF0008BEB93E00E94EB03C3E6D3E088819981EB
:101E00000E94AE0389EB93E00E94EB03249683E0EB
:101E1000CF37D80799F788E893E0DF91CF910C94FA
:101E2000AE038F929F92AF92BF92CF92DF92EF92CA
:101E3000FF92CF93DF93CDB7DEB72A970FB6F89412
:101E4000DEBF0FBECDBF80912406882309F459C0A0
:101E500080913806882309F454C080914C06882369
:101E600009F44FC04AE050E070E060E084E296E0A0
:101E70000E940D2D6B014AE050E070E060E088E3C5
:101E800096E00E940D2D4B014AE050E070E060E0CA
:101E90008CE496E00E940D2DCC0CDD1CCC0CDD1CDE
:101EA000C80CD91CCC0CDD1CCC0CDD1C6C0D7D1DB4
:101EB000FB01EE0FFF1FE354FE4FE590F4904AE064
:101EC000BE016A5F7F4FC7010E94812E40E1BE01C3
:101ED0006F5F7F4FC7010E94812E8EEE93E00E94BC
:101EE000EB03CE0101960E94AE038BEE93E00E94BD
:101EF000EB03CE0106960E94AE0388EE93E00E94AB
:101F0000EB032A960FB6F894DEBF0FBECDBFDF916C
:101F1000CF91FF90EF90DF90CF90BF90AF909F90C8
:101F20008F9008956F927F928F929F92AF92BF92FF
:101F3000CF92DF92EF92FF920F931F93CF93DF9395
:101F4000CDB7DEB728970FB6F894DEBF0FBECDBF72
:101F500080912406882309F447C04AE050E070E0ED
:101F600060E084E296E00E940D2D85E0660F771F09
:101F70008A95E1F78B0103541E4FB12CA12C98ECEC
:101F8000692E93E0792ECE0101964C016801F12C67
:101F9000E12CF601859194919F938F937F926F929C
:101FA0009F928F920E94A62EC4010E94AE039FEFC3
:101FB000E91AF90A82E0C80ED11C0F900F900F9019
:101FC0000F900F900F9094E0E916F10411F788E854
:101FD00093E00E94AE038FEFA81AB80A085F1F4F64
:101FE00094E0A916B10491F628960FB6F894DEBFD6
:101FF0000FBECDBFDF91CF911F910F91FF90EF905A
:10200000DF90CF90BF90AF909F908F907F906F9018
:102010000895DF92EF92FF920F931F93CF93DF9378
:102020000F92CDB7DEB72FEF84E39CE021508040C4
:102030009040E1F700C0000088E8E82E86E0F82E26
:1020400010E000E090E2D92ED9824AE0BE016F5F35
:102050007F4FC8010E94812ECE0101960E94AE03DF
:1020600085EE93E00E94EB03C7010E94AE0383EE6E
:1020700093E00E94EB030F5F1F4F20E5E20EF11C7F
:102080000530110509F70F90DF91CF911F910F9146
:10209000FF90EF90DF900895CF93DF9381E08093DE
:1020A0005C0561ED73E08CE095E00E94342EE8E879
:1020B000F6E080E991E0DF019C011D922150304063
:1020C000E1F7C0E1D6E061ED73E0CE010E94342E6D
:1020D000649636E0C838D307B1F782E894E0DF9120
:1020E000CF910C94AE0380918A03882369F180918B
:1020F0008703882341F0109287036CE075E088E83D
:1021000096E00C94342E40E550E068E777E088ECE8
:1021100097E00E944B2E40E550E068E277E088E7C8
:1021200097E00E944B2E40E550E068ED76E088E2B3
:1021300097E00E944B2E40E550E068E876E088ED9D
:1021400096E00E944B2ED9CF08952FEF80E792E0C2
:10215000215080409040E1F700C000008FEA93E0FA
:102160000E94EB038CE095E00E94AE0382EA93E0CC
:102170000C94EB03CF93DF9388E893E00E94AE03C7
:1021800060ED73E08CE095E00E94262EC0E0D4E183
:10219000009769F5C3E6D3E06CE075E0888199812A
:1021A0000E942B2E892BA1F5EA81FB810995809154
:1021B0005C058823B1F161ED73E08CE095E00E944D
:1021C000342EC0E1D6E061ED73E0CE010E94342EE2
:1021D000649686E0C838D807B1F78FE993E00E948B
:1021E000EB0382E894E0DF91CF910C94AE03CD9F96
:1021F00090011124BC01C901805F994F0E94342EC7
:1022000060ED73E090E080E00E94262ECF5FC0CFAB
:10221000249683E0CF37D80709F0BECF0E94A510DF
:10222000C6CFDF91CF91089580910A0590910B055B
:10223000853091053CF084E090E090930B0580930D
:102240000A05089597FF04C010920B0510920A0525
:102250000895EF92FF920F931F93CF93DF930F9206
:10226000CDB7DEB78C010D3D8CE5180739F4FB01C5
:102270008281882319F00E944C1012C080915C0565
:10228000FF24F394882309F468C0FB01F280FF2047
:1022900009F4EDC00E3DFCE51F0721F40E94CA0EB3
:1022A000F12C5BC00F3F110511F008F056C001354D
:1022B0001105A8F40F34110598F709321105C9F179
:1022C0000A321105D9F10832110589F40E94731000
:1022D00010920B0510920A050E94BA10E1CF013549
:1022E000110509F48AC00235110509F447C00B3302
:1022F000110598F519820E94881D8272F801E25F2B
:10230000FB4F811107C00E94881D811126C0F80172
:10231000E85BFB4F8081898389818823F1F041E06C
:1023200050E0BE016F5F7F4F8CE095E00E943B2E36
:1023300014C08DE993E00E94EB039DCF8CE095E003
:10234000FC0101900020E9F7CF018D5095408823D2
:1023500069F0855F9A4FFC0110828F2D0F90DF91FD
:10236000CF911F910F91FF90EF90089540E061E0B1
:1023700070E08FE793E00E94FB0A92CF0E94141155
:1023800080910A0590910B0505970CF089CF0CE020
:1023900015E0F80101900020E9F78F010D5015407C
:1023A000F12CE12CE016F10604F180910A059091E0
:1023B0000B0520E5289FB001299F700D1124685757
:1023C000794F40E550E08CE095E00E944B2E8CE088
:1023D00095E00E94AE0380910A0590910B0501964D
:1023E00090930B0580930A055BCF82ED93E00E94EA
:1023F000AE03FFEFEF1AFF0AD5CF0E9414118091B0
:102400000A0590910B0597FD4BCF0CE015E0F80104
:1024100001900020E9F78F010D501540F12CE12CBF
:10242000E016F106E4F080910A0590910B0520E595
:10243000289FB001299F700D11246857794F4FE4F0
:1024400050E08CE095E00E944B2E8CE095E00E94DD
:10245000AE0380910A0590910B050197C1CF82EDE3
:1024600093E00E94AE03FFEFEF1AFF0AD9CFF82ED8
:1024700074CF90936205809361050895E0916105A2
:10248000F0916205309721F00190F081E02D0994E0
:1024900080E00895E0916105F0916205309799F030
:1024A00020919C03222359F020911E0827FF07C08A
:1024B000DC012C9111962C93119725E02C9302802E
:1024C000F381E02D09940895E0916105F091620592
:1024D000309739F022E0DC012C930480F581E02D67
:1024E0000994089520915F053091600528173907F8
:1024F00071F09093600580935F05E0916105F09124
:102500006205309721F00680F781E02D0994089547
:1025100020915D0530915E052817390771F0909381
:102520005E0580935D05E0916105F091620530974D
:1025300021F00084F185E02D0994089585B7806825
:1025400085BF85B7806885BF089508950E949E1253
:102550000C94A51281E008950E94441F0E94570820
:102560000C94CB1FBF92CF92DF92EF92FF920F930A
:102570001F93CF93DF93CDB7DEB72A970FB6F894AA
:10258000DEBF0FBECDBF0E94A3080E94AA128823FF
:1025900009F471C084E6C82E85E0D82E10E000E072
:1025A000B02E802F0E944609E82EF601F1906F01AF
:1025B000F81609F45AC08091D80581FD0E944C0993
:1025C00090E080E0FE242F2D30E0482FB901082E46
:1025D00002C0759567950A94E2F760FF41C08E834B
:1025E000BF8281E090E06C0102C0CC0CDD1C4A95FA
:1025F000E2F72E2D30E02C213D21232B09F480E041
:1026000088870E944D1F8160782F9A8789874E8125
:102610005F8168858A850E945C13F801EC59FA4F46
:1026200080818C2580830E9459210E943E129091C6
:102630006305891789F10E943E12809363052A96EB
:102640000FB6F894DEBF0FBECDBFDF91CF911F91C3
:102650000F91FF90EF90DF90CF90BF900C94FF030D
:1026600001968430910509F0B0CF0F5F1F4F043001
:10267000110509F095CF8FEF89838A831B820E9411
:102680004D1F8160782F9D838C8349815A816B8196
:102690008D810E945C13C7CF2A960FB6F894DEBFD7
:1026A0000FBECDBFDF91CF911F910F91FF90EF90A3
:1026B000DF90CF90BF900895CF93DF93CDB7DEB773
:1026C0002B970FB6F894DEBF0FBECDBF4F83588750
:1026D00069877A878B871E821D8285E0FE01379687
:1026E000DE01119601900D928A95E1F749815A8198
:1026F0006B817C818D819E812B960FB6F894DEBF15
:102700000FBECDBFDF91CF910C942E1AFC018081BA
:1027100091810C94E31C882309F405C18238B9F433
:102720000E943E1281FDFFC089E30E94111D0E949C
:10273000551D2FEF81EE94E0215080409040E1F74D
:1027400000C0000089E30E94181D0C94551D8338B9
:10275000A1F40E943E1280FDE6C083E50E94111D97
:102760000E94551D2FEF81EE94E021508040904053
:10277000E1F700C0000083E5E6CF8438A1F40E94B1
:102780003E1282FDD0C087E40E94111D0E94551D9B
:102790002FEF81EE94E0215080409040E1F700C09F
:1027A000000087E4D0CF9CEF980F913A18F40E9474
:1027B000111DCBCF90E2980F983050F4877091E0C4
:1027C00001C0990F8A95EAF7892F0E948B1DBDCF12
:1027D0009BE5980F933070F4853A31F0863A39F0E2
:1027E00083E890E00C94721281E890E0FBCF82E8DD
:1027F00090E0F8CF98E5980F973108F08EC0883AAE
:1028000009F446C0893A09F446C08A3A09F446C038
:102810008B3A09F446C08C3A09F446C08B3B09F464
:1028200046C08C3B09F446C08D3A09F446C0803B53
:1028300009F446C08E3A09F446C08F3A09F446C0FE
:10284000813B09F446C0823B09F446C0833B09F44E
:1028500046C0843B09F446C0853B09F446C0863B2C
:1028600009F446C0873B09F446C0883B09F446C0DA
:10287000893B09F446C08D3B09F446C08E3B09F400
:1028800046C08A3B09F446C090E080E00C94881270
:1028900082EE90E0FBCF89EE90E0F8CF8AEE90E0F8
:1028A000F5CF85EB90E0F2CF86EB90E0EFCF83EBB6
:1028B00090E0ECCF84EB90E0E9CF87EB90E0E6CFBF
:1028C0008CEC90E0E3CF8DEC90E0E0CF83E891E0FA
:1028D000DDCF8AE891E0DACF82E991E0D7CF84E9D1
:1028E00091E0D4CF81E292E0D1CF83E292E0CECFEB
:1028F00084E292E0CBCF85E292E0C8CF86E292E01C
:10290000C5CF87E292E0C2CF8FE690E0BFCF80E7ED
:1029100090E0BCCF8AE292E0B9CF803F20F00E94E5
:1029200067200C944E210895882309F452C0823800
:1029300071F40E943E1281FF4CC089E30E94111D78
:102940000E94551D89E30E94181D0C94551D833863
:1029500059F40E943E1280FF3CC083E50E94111D85
:102960000E94551D83E5EFCF843859F40E943E1232
:1029700082FF2FC087E40E94111D0E94551D87E42D
:10298000E2CF9CEF980F913AF0F290E2980F9830D6
:1029900050F4877091E001C0990F8A95EAF7892F6A
:1029A0000E94911DD2CF9BE5980F933020F490E0C8
:1029B00080E00C94721298E5980F973120F490E023
:1029C00080E00C948812803F20F00E94CF200C946D
:1029D0004E210895882321F00E948B1D0C94551DD3
:1029E0000895882321F00E94911D0C94551D08958F
:1029F0008F929F92AF92BF92CF92DF92EF92FF920F
:102A00000F931F93CF93DF937C01D62FC72FFC0129
:102A1000058102950F70128111110E94A81D0E945C
:102A20004E1DC82E882371F01123B1F080E28D0F66
:102A3000883090F082E00E94381D0E944E1D91E087
:102A4000C82EC926DC2ED2949FE0D922ED2DF0E0CD
:102A5000E55BFD4C0C94AB2CC12CF4CF0C2F0F700C
:102A6000C07F11F00295007F1123A9F0002359F0D7
:102A700080E28D0F883010F0D11109C0802F0E94A4
:102A80008B1D0E94551D8D2F0E948B1314C0802F0B
:102A90000E949B1DF6CF8D2F0E949414002359F0A5
:102AA00080E28D0F883010F0D11133C0802F0E944A
:102AB000911D0E94551D98E0D91639F0D91648F09D
:102AC00086EF8D0D8F70823020F40E943E120E949E
:102AD000FF03CC2009F4D9C10E942B1D80FDD5C174
:102AE000F70112820E94251D0E94B21BC7010E949D
:102AF00052170E94251DDF91CF911F910F91FF90DA
:102B0000EF90DF90CF90BF90AF909F908F900C94FC
:102B1000D31B802F0E94A11DCCCFFC2FFF70BF2E96
:102B2000C07FC03219F0B29480EFB822DD2369F083
:102B3000D13049F1112391F1002351F1F701858141
:102B400080FFA1CF8F70858323C0112381F00111F5
:102B500006C00E94C11D8B290E94EA14ACCF01302F
:102B6000C1F70E94C11D8B290E94BB1DA4CF01117A
:102B700006C00E94BE1D8B2D0E94F1149CCF013017
:102B800009F499CFF6CF112329F0063008F093CF3E
:102B90008B2DE2CF053008F08ECFEDCF002359F317
:102BA0008D2F0E94941487CF8C2F869586958370E5
:102BB00069F0813009F07FCF8D2F9C2F9370111118
:102BC00002C090E080E00E94881275CF8D2F9C2F6C
:102BD0009370111102C090E080E00E9472126BCFDE
:102BE000112309F1D53F99F0D63FB9F0D43F49F40C
:102BF000809118089091190881609093190880932A
:102C000018088D2F0E9467200E944E2154CF80917A
:102C10001808909119088260F0CF8091180890915F
:102C200019088460EACFD53F89F0D63FA9F0D43F98
:102C300049F480911808909119088E7F9093190893
:102C4000809318088D2F0E94CF20DECF8091180826
:102C5000909119088D7FF2CF8091180890911908F2
:102C60008B7FECCF8C2F837009F047C0111123CFDD
:102C70002D2F229526952770220F220F6D2F6F7012
:102C8000862E912CB12CA12C022E04C0880C991CEC
:102C9000AA1CBB1C0A94D2F760E070E0CB01D4FF01
:102CA0000FC06FE070E080E090E004C0660F771F17
:102CB000881F991F2A95D2F76095709580959095F9
:102CC000C695C695C370C23051F080F46829792941
:102CD0008A299B29C13071F00E94641BECCE6829BF
:102CE00079298A299B290E94761BE5CE0E94641BC4
:102CF000C501B4010E94521BDECE8695112311F04E
:102D00008C2F8170882309F4D6CE2D2F22952695FD
:102D10002770220F220F6D2F6F70862E912CB12CF1
:102D2000A12C022E04C0880C991CAA1CBB1C0A945E
:102D3000D2F760E070E0CB01D4FF0FC06FE070E02D
:102D400080E090E004C0660F771F881F991F2A95C6
:102D5000D2F76095709580959095C695C695C3708D
:102D6000C23051F080F4682979298A299B29C13021
:102D700071F00E94291C9FCE682979298A299B29F4
:102D80000E943B1C98CE0E94291CC501B4010E94E0
:102D9000171C91CEE0E2ED0FE53108F04DC0F0E0F8
:102DA000E55AFD4C0C94AB2CDF708C2F8F711123E6
:102DB00021F00E94B21B8D2FCFCE0E94D31B8D2FEE
:102DC000DBCE112341F0053008F075CE8C2F8F71CA
:102DD0000E94F61B70CE063008F06DCEF7CF8C2F18
:102DE0008F71112339F00E94B21B65CE8C2F8F7129
:102DF0001123C9F30E94D31B5ECE112329F08C2F1F
:102E00008F710E949D1B57CE0E94981B54CE112398
:102E100049F0CF718C2F0E94B21B63E08C2F0E946F
:102E20002F1D49CE81E00E94381D023008F443CEA8
:102E300082E00E94381D3FCE112329F0011123CEDC
:102E40008C2F8F71D0CF002369F0D93309F0A8CE31
:102E5000FFEF27EE83E0F15020408040E1F700C013
:102E600000009ECE8C2F8F71C5CF4C2F4F706D2FD1
:102E7000C7010E94E5050E94C81A1DCE4C2F4F7055
:102E80006D2FC7010E94E80516CEDF91CF911F91EB
:102E90000F91FF90EF90DF90CF90BF90AF909F90F9
:102EA0008F9008950F931F93CF93DF93EC018B8145
:102EB0009C81892B29F08881998189238F3F29F46E
:102EC000DF91CF911F910F910895CE010E942704A9
:102ED0008823B1F3688179818A810E94ED1C8C017D
:102EE0000E944D1C0E944F1BB801CE01DF91CF9173
:102EF0001F910F910C94F8140E94A81D0E94B81DF8
:102F00000E941F1D0E94551D0E94EC210E944E210F
:102F100090E080E00E94721290E080E00C948812B1
:102F20000E94981D0C947C170E94E31CE92FE295E7
:102F3000EF70E250EE3070F4F0E0E059FD4C0C948C
:102F4000AB2C803F19F020F4803E20F481E00895FE
:102F5000843FE1F380E00895803EC0F3813FD1F7E4
:102F6000F5CF93FB882780F90895CF93DF9300D0A6
:102F700000D00F92CDB7DEB70F900F900F900F904B
:102F80000F90DF91CF910895CF93DF9300D000D0C1
:102F900000D0CDB7DEB726960FB6F894DEBF0FBED1
:102FA000CDBFDF91CF9108951F93CF93DF93C09151
:102FB000690516E080916A058C1304C0DF91CF91FA
:102FC0001F910895D0E01C9FF0011D9FF00D11246A
:102FD000E559FA4F408151816281738184819581E5
:102FE0000E94C4172196C770E5CF40919B05509170
:102FF0009C0560919D0570919E0580919F05909123
:10300000A0050C94C4171F93CF93DF938091A00564
:10301000807FC1F480919D058823A1F0809169058E
:10302000C0916A0560919B0570919C0540919E0539
:1030300050919F05D62FD723DA01A095B09516E0C1
:10304000C81304C0DF91CF911F91089590E04115FE
:10305000510511F0DF3F31F401968770F1CF2A0F4F
:103060003B1F17C0189FF001199FF00D1124E5595F
:10307000FA4F21812713F0CF20812613EDCF228133
:103080002111EACF238134812417350740F3241B13
:10309000350B283C310500F72091A0052F702061E9
:1030A0002093A00526E0289FF001299FF00D112410
:1030B000E059FA4F80818F70806180838BE995E0C1
:1030C0000E945217DF91CF911F910C94D417BF9299
:1030D000CF92DF92EF92FF920F931F93CF93DF93E4
:1030E000CDB7DEB761970FB6F894DEBF0FBECDBF88
:1030F0008C0185E0F801DE011D9601900D928A9504
:10310000E1F7D8014C9111965C9111971296EC90D1
:10311000129780919E0590919F05009709F47FC1B9
:1031200020919B0530919C05622F63236F3F09F42A
:1031300076C11396CD90DC90B0909D05BB2009F42C
:1031400011C1C816D906D0F1F601E81BF90BCF0161
:10315000FF24F394883C910508F0F12C8091A005A0
:10316000982F907FFF2009F4B8C091117FC0FE2CEA
:10317000351329C0241327C0E11025C08F7080614A
:103180008093A0050E94F5178BE995E00E945217E5
:103190008091A005D80115968C938F2D61960FB65E
:1031A000F894DEBF0FBECDBFDF91CF911F910F917D
:1031B000FF90EF90DF90CF90BF900895809590950D
:1031C0008C0D9D1DC5CFCD2829F0852F84238F3FE1
:1031D00009F041C180E0B82FB170DB2E80FF3CC008
:1031E0008091690520916A0536E0821315C04D87EC
:1031F0005E878D859E850E94E31C292F22952F7066
:103200002230F0F0243018F59F70F1F0F80195812C
:10321000907FD1F4D12C1EC090E0389FF001399FEF
:10322000F00D1124E559FA4F6181651306C06081E4
:10323000641303C06281E6120FC001968770D5CF78
:103240009F7011F0882331F3805E883018F3C80135
:103250000E945217FD2CA1CFEE2009F49ECF809141
:10326000A00581608093A005F12C97CF351306C08F
:10327000241304C0D801EE2009F49AC04D875E875C
:103280008D859E850E949417882319F1EE2009F1FF
:103290008091A005803270F020919B0530919C05B3
:1032A00038872F831986DB86CA868C87CE010796DE
:1032B0000E94521786E0F801ABE9B5E001900D924B
:1032C0008A95E1F70E9403180E94F517FF24F394F2
:1032D00064CFC8010E945217F9CF911113C07C2D01
:1032E000D98AC88A6E2D89890E94B5178BE995E025
:1032F0000E94521786E0EBE9F5E0DF011D928A9506
:10330000E9F763C0351312C0241310C0E1100EC0DA
:10331000F8018583C8010E945217EBE9F5E086E0C9
:10332000DF011D928A95E9F7FB2C37CF4D875E8729
:103330008D859E850E949417882359F2EE2049F2CC
:103340008091A005803208F4B5CF20919B05309183
:103350009C053A8329831B82DD82CC828E83CE0139
:103360000196A6CFC816D90698F1F601E81BF90B0D
:10337000CF01F12C883C910508F049C0FE2CEE20CD
:1033800009F4A7CF351332C0241330C08091A005B3
:1033900080FD23C0982F907F01F1D80115968C9362
:1033A0001597903F39F0982F907F905F8F70892B01
:1033B00015968C93C8010E94521786E0F801ABE97C
:1033C000B5E001900D928A95E1F70E94F517E5CEE0
:1033D000809590958C0D9D1DCCCF86E0F801ABE9D2
:1033E000B5E001900D928A95E1F7D7CE4D875E87C3
:1033F0008D859E850E94941781115CCF8091A005D8
:1034000081608093A005C8010E945217C6CE7C2D12
:10341000D98AC88A6E2D89890E94B5176BCFEE2094
:1034200009F457CF4D875E878D859E850E9494173E
:10343000F82E882309F44DCF86E0F801ABE9B5E01A
:1034400001900D928A95E1F78BE995E00E94861331
:103450000E940318BACF81E08E25BDCE1F93CF9373
:10346000DF93CDB7DEB72C970FB6F894DEBF0FBE53
:10347000CDBF4F83588769877A878B879C87CE011A
:1034800007960E946718882369F08A859B85892B97
:1034900039F04F815885842F85238F3F09F071C003
:1034A00016E05FC086E0FE013796DE0111960190BE
:1034B0000D928A95E1F78A859B85892B89F388850A
:1034C0009F8189238F3F61F320916A0530E0C90114
:1034D000019687709927409169054817190671F47C
:1034E0000E94901710926A051092690586E0EBE938
:1034F000F5E0DF011D928A95E9F7D2CF96E0929F21
:10350000D001939FB00D1124A559BA4FFE013196F9
:1035100001900D929A95E1F780936A050E94D41765
:10352000BFCF819FC001112485599A4F0E9467180F
:103530008823E9F0E09169051E9FF0011124E55907
:10354000FA4F4081518162817381848195810E940B
:10355000C4178091690590E0019687709927809340
:1035600069058091690590916A058913DACF2C96D7
:103570000FB6F894DEBF0FBECDBFDF91CF911F9184
:10358000089569857A858B859C850E94C41788CFAC
:10359000EF92FF920F931F93CF93DF938C01892BB0
:1035A00081F0F12CEE24E394E8012196F801849156
:1035B000843770F4843008F05FC08130B1F082301D
:1035C000A1F1DF91CF911F910F91FF90EF9008959E
:1035D000853709F44CC008F43DC09CE7980F90373C
:1035E00080F78F770E94941449C00E5F1F4FFE0131
:1035F000849190E2980F983060F48770FE2D01C09E
:10360000FF0F8A95EAF78F2F0E94AB1D0E94551D70
:1036100002C00E948B138F2D815030F2EFE9FFE042
:103620003197F1F700C00000F7CF0E5F1F4FFE018A
:10363000849190E2980F983050F48770FE2D01C06D
:10364000FF0F8A95EAF78F2F0E94B11DDFCF0E94EE
:103650009414E1CF0E5F1F4FFE01C491C150D8F208
:103660008FE99FE00197F1F700C00000F7CF0E5FF0
:103670001F4FFE01F490CFCF0E948B138E01CBCF52
:1036800008950C94401B0E94411B6093AF057093FA
:10369000B0058093B1059093B2050C947C17089502
:1036A0000C94431B0F931F930091AF051091B0052D
:1036B0002091B1053091B205602B712B822B932B99
:1036C0001F910F910C94431B0F931F930091AF0513
:1036D0001091B0052091B1053091B205602371239E
:1036E000822393231F910F910C94431B0F931F93DD
:1036F0000091AF051091B0052091B1053091B20550
:1037000060277127822793271F910F910C94431BE9
:103710000C94401B0C94881B0E948A1B6093AB0581
:103720007093AC058093AD059093AE050C947C1717
:1037300060E070E0CB010C948C1B0F931F9341E071
:1037400050E060E070E08A019B0104C0000F111F8F
:10375000221F331F8A95D2F7C901B8011F910F911B
:103760000C948C1B0F931F9341E050E060E070E0DD
:1037700004C0440F551F661F771F8A95D2F78091AA
:10378000AB059091AC05A091AD05B091AE058A0155
:103790009B01082B192B2A2B3B2BC901B8011F9128
:1037A0000F910C948C1B0F931F9341E050E060E04D
:1037B00070E004C0440F551F661F771F8A95D2F72B
:1037C000CB01BA0160957095809590950091AB05FD
:1037D0001091AC052091AD053091AE0560237123A9
:1037E000822393231F910F910C948C1B0F931F9393
:1037F00041E050E060E070E004C0440F551F661FD8
:10380000771F8A95D2F78091AB059091AC05A09176
:10381000AD05B091AE058A019B01082719272A271B
:103820003B27C901B8011F910F910C948C1B0F937A
:103830001F930091AB051091AC052091AD0530911F
:10384000AE05602B712B822B932B1F910F910C9443
:103850008C1B0F931F930091AB051091AC05209129
:10386000AD053091AE0560237123822393231F9110
:103870000F910C948C1B0F931F930091AB0510912B
:10388000AC052091AD053091AE05602771278227E8
:1038900093271F910F910C948C1B0895990F990FEA
:1038A000890F982F977041E001C0440F9A95EAF76D
:1038B00086958695869595E0899FF0011124EF55B0
:1038C000FA4F30E020E070E05191DF011197CB0119
:1038D000022E02C0969587950A94E2F78170819531
:1038E0008527842385278C932F5F3F4F2530310513
:1038F00059F70895990F990F890F982F977086950A
:103900008695869525E0829FF0011124EF55FA4FA8
:1039100050E040E080E0219130E0092E02C0369571
:1039200027950A94E2F721703327042E01C0220F55
:103930000A94EAF7822B4F5F5F4F4530510559F7E4
:103940000895BF92CF92DF92EF92FF920F931F9351
:10395000CF93DF938C01C090AB05D090AC05E09085
:10396000AD05F090AE058091AF059091B005A091A6
:10397000B105B091B205C82AD92AEA2AFB2ACFE1BB
:10398000D0E0BC2ED701C6010C2E04C0B695A79579
:10399000979587950A94D2F780FD0EC0219788F7F6
:1039A000B12C8B2DDF91CF911F910F91FF90EF9054
:1039B000DF90CF90BF900895B8018C2F0E9405062C
:1039C000019761F3EECFCF93DF93EC010E94A11C2E
:1039D000BE01DF91CF910C9405061F93CF93DF9327
:1039E000EB0190916805992331F0CB01DF91CF91E4
:1039F0001F910C94E31C882379F0CB010E94A11C39
:103A0000182F682FCE010E944E1CBE01812FDF911E
:103A1000CF911F910C940506CB010E947A1C182FA0
:103A2000F4CF682F80918B0390918C030C94A11E8E
:103A3000682F80918B0390918C030C94AC1E809125
:103A40008B0390918C030C94B71E8091B3058595E0
:103A50008595859508958091B3058770089598E0C0
:103A6000899F90011124622B6093B3050C94B21BC3
:103A70009091B305809589238093B305282F2770F3
:103A800061F4282F082E000C330B9217130629F02F
:103A90008595859585950C94D31B08959091B305D4
:103AA000977081E009F480E00895E0918B03F09134
:103AB0008C038091D7058083E0918B03F0918C0378
:103AC00080819091D605892B8083E0918B03F091C2
:103AD0008C0380819091D505892B80839091B405CA
:103AE000992381F0E0918B03F0918C038081892BE5
:103AF000808380918B0390918C030E943D1E8111E5
:103B00001092B40580918B0390918C030C944A120F
:103B10008091D70508959091D705892B8093D7057B
:103B2000089580959091D70598239093D70508958F
:103B30001092D70508959091D605892B8093D605CC
:103B4000089580959091D60598239093D605089571
:103B50001092D60508959091D505892B8093D505AF
:103B6000089580959091D50598239093D505089553
:103B70001092D50508958093B40508951092B40568
:103B800008958091B405089590E080E00E9453313B
:103B900021E08D3E9E4F09F020E0822F089582E0C3
:103BA00090E00C944B3183E090E00C944B3184E036
:103BB00090E00C944B31682F84E090E00C945931E4
:103BC00087E090E00C944B31682F87E090E00C94F4
:103BD0005931AB01BC018FE090E00C946B31AB012B
:103BE000BC0183E190E00C946B3160E070E0CB01AC
:103BF0000C94EF1D60E070E0CB010E94E91D0C9475
:103C0000F51D6DEE7EEF90E080E00E94773160E080
:103C100082E090E00E94593160E083E090E00E94F1
:103C200059311092AF051092B0051092B105109263
:103C3000B20560E084E090E00E94593160E085E0E8
:103C400090E00E94593160E086E090E00E94593196
:103C50006FEF87E090E00E94593140E050E0BA01F8
:103C600088E090E00E946B3160E08DE090E00E947F
:103C700059310C94FA1D0C94011EFC01329680916E
:103C80009C03882321F080911E089EE187FF96E027
:103C900080E0915008F4089521912223D1F38F5FA1
:103CA000F8CF9C01FC0132969FEF80E041914617CE
:103CB00051F09F3F19F4411101C0982F8F5F86305A
:103CC000A9F79F3F09F40895290F311D97FD3A95F3
:103CD000F90162830895FC0132960896219126131A
:103CE00003C0DF0111971C92E817F907B9F708958F
:103CF000E62FE695E695E695EE3168F4E80FF92FA4
:103D0000F11D677021E030E001C0220F6A95EAF7EB
:103D10008281822B82830895E62FE695E695E695CB
:103D2000EE3170F4E80FF92FF11D677021E030E0FB
:103D300001C0220F6A95EAF7209582812823228309
:103D4000089520919C03222329F020911E0827FD2D
:103D50000C94781E0C94511E20919C03222329F070
:103D600020911E0827FD0C948C1E0C946B1EFC01E8
:103D7000329680919C03882351F080911E0887FF22
:103D800006C08EE1DF011D928A95E9F7089586E06D
:103D9000F9CF089508950C94CA1E0E94CB1E8091FD
:103DA0002408843049F11092D90588E190E020E49C
:103DB0000FB6F894A895809360000FBE2093600022
:103DC00080E00E94FF030E94CB1E83B7817F846046
:103DD00083BF83B7816083BF7894889583B78E7FD4
:103DE00083BF0FB6F894A895809160008861809396
:103DF0006000109260000FBE08950895CF930E9456
:103E0000C91E0E94A3080E94FD1EC0E08C2F0E94C4
:103E10004609811105C0CF5FC430C1F7CF91089525
:103E200081E0FCCF08950C94121F0E9490170E940D
:103E30003E120E94FF030C94131F1F921FB61F9285
:103E400011248F939F93AF93BF938091D9058111D4
:103E500013C080911A0890911B08A0911C08B09182
:103E60001D084196A11DB11D80931A0890931B084F
:103E7000A0931C08B0931D08BF91AF919F918F91A3
:103E80001F901FBE1F90189582E084BD93E095BDE2
:103E90009AEF97BD80936E0008952FB7F8948091A4
:103EA0001A0890911B08A0911C08B0911D082FBF03
:103EB0000895CF92DF92EF92FF920F931F932FB747
:103EC000F89440911A0850911B0860911C08709159
:103ED0001D082FBF6A017B01EE24FF248C0130E016
:103EE00020E0C016D106E206F30650F0481B590B3D
:103EF000CA011F910F91FF90EF90DF90CF9008952E
:103F000041505109F3CF78941F921FB61F9211248C
:103F10008F939F93AF93BF9380911A0890911B0842
:103F2000A0911C08B0911D080196A11DB11D8093A0
:103F30001A0890931B08A0931C08B0931D08BF910A
:103F4000AF919F918F911F901FBE1F90189581E098
:103F50008093E00080E28093D8001092C9008FE146
:103F60009EE40197F1F700C0000087E090EBDC01D0
:103F700080932F0890933008A0933108B0933208B3
:103F800088E19CE00FB6F894A895809360000FBE7E
:103F900090936000FFCF0E94C41D811102C00E9457
:103FA0003B1E0E94CF1D8093D8050E94D71D90E034
:103FB00090931F0880931E080E94D31D682F70E005
:103FC00090E080E00C94501B8091DD0580FF12C0D2
:103FD0006091900385E0689FB00111247595679505
:103FE0007595679560387105A8F561157105A1F1A2
:103FF000862F089581FF09C06091900385E0689F36
:10400000B001112475956795EDCF6091900382FD05
:104010000AC08091DE058823D1F090918F036091D2
:104020009003891728F085E0689FB0011124DACF4A
:10403000869FB001112485E0869F9001879F300DF7
:104040001124692F70E0C9010E94972CCBCF65E045
:1040500070E0CECF8FE7089581E008958091DD056F
:1040600080FF0CC060918E0370E075956795759523
:1040700067956115710549F1862F089581FF06C086
:1040800060918E0370E075956795F3CF60918E0314
:1040900082FD0BC09091DE059923A1F060918D0304
:1040A00080918E03961738F0682F70E060387105A4
:1040B00000F38FE70895899FC001112470E00E94EA
:1040C000972CF4CF61E070E0D7CF81E00895803F76
:1040D00031F40E94E41F81958093E2050895813FA9
:1040E00019F40E94E41FF8CF823F31F40E94E41FCC
:1040F00081958093E1050895833F19F40E94E41FA0
:10410000F8CF893F29F40E942E208093E30508957B
:104110008A3F21F40E942E208195F7CF8B3F31F406
:104120000E942E2081958093E40508958C3F19F418
:104130000E942E20F8CF843F31F48091E005816009
:104140008093E0050895853F21F48091E005826029
:10415000F7CF863F21F48091E0058460F1CF873F5F
:1041600021F48091E0058860EBCF883F21F48091B5
:10417000E0058061E5CF8D3F31F48091DD05816000
:104180008093DD0508958E3F21F48091DD058260E6
:10419000F7CF8F3FB9F78091DD058460F1CF909123
:1041A000E105803F41F48091E20587FD1092E20530
:1041B000992371F00895813F29F48091E205181642
:1041C000ACF3F6CF823F81F497FFF2CF1092E10576
:1041D0008091E2059091E305892B9091E405892B6C
:1041E00049F71092DE050895833F19F4191674F308
:1041F000DFCF893F39F48091E3051816CCF6109291
:10420000E305D6CF8A3F29F48091E30587FFD0CF1D
:10421000F6CF8B3F39F48091E40587FFC9CF109228
:10422000E405C6CF8C3F29F48091E4051816BCF351
:10423000BFCF843F31F48091E0058E7F8093E0050D
:10424000B7CF853F21F48091E0058D7FF7CF863F82
:1042500021F48091E0058B7FF1CF873F21F480919D
:10426000E005877FEBCF883F21F48091E0058F7ECA
:10427000E5CF8D3F31F48091DD058E7F8093DD05A4
:1042800097CF8E3F21F48091DD058D7FF7CF8F3F53
:1042900009F08ECF8091DD058B7FF0CF8FED95E01B
:1042A0000E9464120E944D1F9093DB058093DA05F3
:1042B00008951F93CF93DF938091DA059091DB05EA
:1042C0000E94591FAC019091DE052091910330E0CE
:1042D000911106C02091DC058AE0289F90011124ED
:1042E0004217530778F02091E105D091E205109133
:1042F000E305C091E405211109C08D2F812B8C2B82
:1043000009F066C0DF91CF911F9108959F3F19F08A
:104310009F5F9093DE05121624F40E94E41F8093A1
:10432000E1058091E10587FF05C00E94E41F8195AA
:104330008093E1051D1624F40E94E41F8093E2059A
:104340008091E20587FF05C00E94E41F819580935C
:10435000E2053091E1053323C1F02091E2052223EB
:10436000A1F045EB3403C0011124892F911101C044
:1043700081E08093E10545EB240390011124832F14
:10438000311101C081E08093E205111624F40E94EE
:104390002E208093E3058091E30587FF05C00E94EE
:1043A0002E2081958093E3051C1624F40E942E2074
:1043B0008093E4058091E40587FF05C00E942E20CC
:1043C00081958093E405DF91CF911F910C944E214C
:1043D0009F3F09F09DCFAECF86E0EFEDF5E0DF0126
:1043E0001D928A95E9F71092DE051092DD05089579
:1043F0008091050608950F931F93CF93DF9300D00C
:104400000F92CDB7DEB78C010E945224823011F09A
:10441000843021F584E089831B830A8382E08093C2
:10442000E9008FEF9091E800815095FD06C095ED71
:104430009A95F1F700008111F5CF8091E80085FF92
:104440000DC050E040E063E070E0CE0101960E94B4
:104450006F248091E8008E778093E8000F900F9092
:104460000F90DF91CF911F910F910895CF93DF931C
:1044700000D00F92CDB7DEB720912408243031F55B
:1044800023E02983805891099B838A8382E080936B
:10449000E9008FEF9091E800815095FD06C095ED01
:1044A0009A95F1F700008111F5CF8091E80085FF22
:1044B0000DC050E040E063E070E0CE0101960E9444
:1044C0006F248091E8008E778093E8000F900F9022
:1044D0000F90DF91CF910895CF93DF93EC010E946D
:1044E0005224823011F08430F9F482E08093E900A4
:1044F0008FEF9091E800815095FD06C095ED9A955B
:10450000F1F700008111F5CF8091E80085FF0CC024
:1045100050E040E066E070E0CE010E946F248091A0
:10452000E8008E778093E800DF91CF910895CF93D4
:10453000DF93EC010E945224823011F08430B9F5EF
:1045400080919C038823B1F180911E0887FF32C0BF
:1045500060E282E08093E9008FEF9091E800815063
:1045600095FD06C095ED9A95F1F700008111F5CF04
:104570008091E80085FF1BC080919C0370E050E0B3
:1045800040E0811104C050E040E068E070E0CE01FE
:104590000E946F248091E8008E778093E80080E28B
:1045A000FE01A5EEB5E001900D928A95E1F7DF914D
:1045B000CF91089568E081E0CDCF809123088111EB
:1045C00009C00E94FD250E945A268091E200846065
:1045D0008093E200089510922308089508950895A5
:1045E0000C94151F42E061EC81E00E947B2542E2C1
:1045F00061EC82E00C947B2580912608833009F4DD
:1046000052C030F4813059F1823009F48EC00895DF
:104610008A3009F47AC08B3009F460C0893009F01F
:1046200041C0809125088132E9F580912908909157
:104630002A080297B8F58091E800877F8093E80008
:104640008091E80082FF2AC08091F10080930506E6
:104650008091E8008B778093E8000C94AF258091DF
:104660002508813AF9F48091E800877F8093E8007B
:104670008091290890912A08892B61F460E285EEE7
:1046800095E070E00E94BE248091E8008B778093D3
:10469000E800089560E090E080E0F3CF8091240886
:1046A0008111CECF089580912508813AD9F7809164
:1046B000290890912A08892BA9F78091E800877F23
:1046C0008093E8008091E80080FFFCCF80919C03FC
:1046D0008093F1008091E8008E77BDCF809125080E
:1046E000813201F78091290890912A08892BD1F60F
:1046F0008091E800877F8093E8000E94AF25809139
:10470000270880939C030C94901780912508813290
:1047100049F68091E800877F8093E8000E94AF25EA
:104720008091280880930606089580912508813A93
:1047300009F0B8CF8091E800877F8093E8008091EE
:10474000E80080FFFCCF80910606C2CF84B7877F48
:1047500084BF0FB6F894A89580916000886180931B
:104760006000109260000FBE80E88093610010929C
:1047700061000E94A6120E94FD250E945A26809187
:10478000E20084608093E20078940E94DA280E941C
:10479000AC1282E993E00E9439128091240885309E
:1047A00019F00E94B212F9CF0E94CD1E809122080A
:1047B000882399F30E94FE1E882379F30E945924CE
:1047C000ECCF0C94E323292F33272330310519F143
:1047D00068F42130310509F44AC02230310509F46A
:1047E0004BC090E080E030E020E028C0213231056D
:1047F00079F122323105A9F780E490E02EE635E028
:1048000061157105D9F080EC90E02EEA34E061305A
:104810007105A1F0E6CF99278130910599F00097B5
:1048200041F08230910589F00397D9F6EFE3F4E087
:1048300002C0EDE5F4E0849190E09F01FA0131833C
:1048400020830895E3E5F4E0F6CFE5E4F4E0F3CF68
:1048500089E090E023E734E06115710579F389E0A0
:1048600090E02CE834E06130710541F3BACF82E189
:1048700090E02CE934E0E2CF8BE390E021E634E0F5
:10488000DDCF0895CF93C82F0E944124C09307061F
:10489000CF91089580912408843011F482E0089526
:1048A00081E0089580910706811102C00C944A248A
:1048B000089580E189BD82E189BD09B400FEFDCF84
:1048C0008091D8008F7D8093D8008091E000826035
:1048D0008093E0008091E00081FDFCCF0895AF92CD
:1048E000BF92CF92DF92FF920F931F93CF93DF93EC
:1048F0006C01EB018A010E94CE25F82E811123C0A4
:104900000115110539F0F80180819181C81BD90B7F
:10491000C80ED91EB12CA12C2097A9F08091E800D7
:1049200085FD22C08091E8008E778093E800011514
:104930001105A1F0F80180819181A80EB91EB18204
:10494000A08285E0F82E8F2DDF91CF911F910F91DE
:10495000FF90DF90CF90BF90AF9008950E94CE253A
:104960008823D1F2F82EEFCFF60181916F01809369
:10497000F1002197FFEFAF1ABF0ACECFFC01809163
:104980002B0890912C0886179707A0F061157105E8
:1049900029F49091E8009E779093E80090E06115EB
:1049A000710551F4911108C08091E80082FF34C074
:1049B00080E00895BC01F2CF809124088823C1F1E2
:1049C0008530C1F18091E80083FD30C08091E8001E
:1049D00082FDEACF8091E80080FFE1CF8091F30073
:1049E0002091F200382F6115710519F0283031053A
:1049F00058F091E02830310509F090E02091E8006E
:104A00002E772093E800CBCF81918093F100615005
:104A100071092F5F3F4FE7CF80912408882341F031
:104A2000853041F08091E80083FFBECF81E008959A
:104A300082E0089583E00895FC0180912B08909115
:104A40002C0886179707A0F06115710529F480914D
:104A5000E8008E778093E80090E06115710551F4CD
:104A6000911108C08091E80082FF35C080E0089570
:104A7000BC01F2CF809124088823C9F18530C9F1A7
:104A80008091E80083FD31C08091E80082FDEACF8B
:104A90008091E80080FFE1CF8091F3002091F20047
:104AA000382F6115710519F02830310558F091E063
:104AB0002830310509F090E08091E8008E778093EE
:104AC000E800CBCF84918093F10031966150710959
:104AD0002F5F3F4FE6CF80912408882341F0853037
:104AE00041F08091E80083FFBDCF81E0089582E02E
:104AF000089583E00895982F973028F08F70809361
:104B0000E90081E008959093E900242F762F50E08A
:104B1000981731F07091EC002091ED005091F00069
:104B200021FD02C09F5FE8CF3091EB003E7F3093C4
:104B3000EB003091ED003D7F3093ED003091EB00C4
:104B400031603093EB007093EC002093ED005093B4
:104B5000F0002091EE0027FDE5CF80E008958091E0
:104B6000250887FF13C08091E80082FF06C080916E
:104B7000E8008B778093E80004C0809124088111BD
:104B8000F2CF0895809124088823D9F38091E8001A
:104B900080FFF8CF8091E8008E77ECCF2091E40081
:104BA0003091E50085E6A9019091EC0090FF06C0E8
:104BB0009091E80090FF06C080E008959091E80091
:104BC00092FDFACF90912408992389F0953089F0CD
:104BD0009091EB0095FD0FC02091E4003091E5002D
:104BE0004217530709F38150F1F684E0089582E0FB
:104BF000089583E0089581E008950E946B260E9445
:104C00007326E0EEF0E0808181608083E8EDF0E0E3
:104C100080818F77808319BCA7EDB0E08C918E7F67
:104C20008C9380818F7E80831092230808950F9348
:104C30001F93CF93DF930E946B260E947326C8EDCB
:104C4000D0E088818F778883888180688883888195
:104C50008F7D888319BC109224081092200810922E
:104C600022081092210800EE10E0F80180818B7F6D
:104C7000808388818160888342E060E080E00E94D8
:104C80007B25E1EEF0E080818E7F8083E2EEF0E034
:104C9000808181608083808188608083F801808149
:104CA0008E7F8083888180618883DF91CF911F917F
:104CB0000F910895E8EDF0E080818F7E8083E7ED2D
:104CC000F0E080818160808384E082BF81E0809316
:104CD00023080C941726E8EDF0E080818E7F808316
:104CE0001092E20008951092DA001092E100089507
:104CF0001F920F920FB60F9211242F933F934F9351
:104D00005F936F937F938F939F93AF93BF93EF9333
:104D1000FF938091E10082FF0BC08091E20082FF4F
:104D200007C08091E1008B7F8093E1000E94D92829
:104D30008091DA0080FF19C08091D80080FF15C0F3
:104D40008091DA008E7F8093DA008091D90080FF15
:104D500094C080E189BD82E189BD09B400FEFDCF28
:104D600081E0809324080E94DD228091E10080FF91
:104D700019C08091E20080FF15C08091E2008E7F13
:104D80008093E2008091E20080618093E200809154
:104D9000D80080628093D80019BC85E080932408F5
:104DA0000E94EF228091E10084FF29C08091E200FF
:104DB00084FF25C080E189BD82E189BD09B400FE80
:104DC000FDCF8091D8008F7D8093D8008091E10045
:104DD0008F7E8093E1008091E2008F7E8093E200DD
:104DE0008091E20081608093E20080912008882316
:104DF00009F449C084E0809324080E94F022809145
:104E0000E10083FF29C08091E20083FF25C08091EB
:104E1000E100877F8093E10082E080932408109274
:104E200020088091E1008E7F8093E1008091E20074
:104E30008E7F8093E2008091E20080618093E200A7
:104E400042E060E080E00E947B258091F000886075
:104E50008093F0000E94EE22FF91EF91BF91AF91FD
:104E60009F918F917F916F915F914F913F912F9182
:104E70000F900FBE0F901F90189519BC1092240828
:104E80000E94EB2272CF8091E30087FD02C081E097
:104E9000B2CF83E0B0CF1F920F920FB60F921124C2
:104EA0002F933F934F935F936F937F938F939F9332
:104EB000AF93BF93CF93EF93FF93C091E900CF706F
:104EC0008091EC001092E9008091F000877F809340
:104ED000F00078940E9487271092E9008091F000FA
:104EE00088608093F000C093E900FF91EF91CF912B
:104EF000BF91AF919F918F917F916F915F914F91F2
:104F00003F912F910F900FBE0F901F9018951F93F8
:104F1000CF93DF93CDB7DEB7AA970FB6F894DEBF75
:104F20000FBECDBF85E298E02091F100FC012193F6
:104F3000CF01F8E08D329F07B9F70E94FC228091E3
:104F4000E80083FF1EC180912508909126089A30C1
:104F500008F017C1E92FF0E0E258FD4C0C94AB2C9F
:104F6000803899F0823809F00CC1809129088F703F
:104F7000873008F006C18093E9008091EB0085FB43
:104F8000882780F91092E90006C08091210890914D
:104F90002208911182609091E800977F9093E80039
:104FA0008093F1001092F1008091E8008E77E5C0C7
:104FB000882309F4D3C0823009F0E3C08091270828
:104FC0008111D6C0809129088F702FEF280F2630CD
:104FD00008F0D7C08093E9002091EB0020FFC8C003
:104FE000933031F48091EB0080628093EB00C0C07D
:104FF0009091EB0090619093EB0021E030E001C0D4
:10500000220F8A95EAF72093EA001092EA00809135
:10501000EB008860EACF8111B4C0109127081F7798
:105020008091E3008078812B8093E3008091E800F9
:10503000877F8093E8000E94AF258091E80080FF81
:10504000FCCF8091E30080688093E30082E011113F
:1050500083E08093240895C08058823008F091C086
:1050600080912708909128088C3D23E09207A1F5B4
:1050700083E08A838AE289834FB7F894DE0113962E
:1050800020E03EE051E2E32FF0E050935700E4913E
:1050900020FF03C0E295EF703F5FEF708E2F90E02E
:1050A000EA30C0F0C7968D939D932F5F243159F756
:1050B0004FBF8091E800877F8093E8006AE270E04C
:1050C000CE0101960E94BE248091E8008B778093E8
:1050D000E80057C0C096E7CF6091290870912A0870
:1050E000AE014F5F5F4F0E94E123BC01892B09F4A1
:1050F00048C09091E800977F9093E80089819A8159
:105100000E941C25E1CF8038E1F58091E800877F7F
:105110008093E800809120088093F10045CF8111B1
:1051200030C090912708923060F58091E800877F29
:105130008093E800909320080E94AF25809120087A
:10514000882311F084E005C08091E30087FDFACF49
:1051500081E0809324080E94F22213C080912708E6
:10516000813079F481E0933009F080E08093220867
:105170001092E9008091E800877F8093E8000E9408
:10518000AF258091E80083FF0AC08091E800877F07
:105190008093E8008091EB0080628093EB00AA96F8
:1051A0000FB6F894DEBF0FBECDBFDF91CF911F9138
:1051B00008950895CF9380912408882399F0C09191
:1051C000E900CF708091EC0080FD0EC080E0C82B1C
:1051D0001092E9008091E80083FD0E948727CF703C
:1051E000C093E900CF91089580E8F1CF5058BB27D4
:1051F000AA270E940E290C94602A0E94522A38F095
:105200000E94592A20F039F49F3F19F426F40C9497
:105210004F2A0EF4E095E7FB0C943B2AE92F0E94FD
:10522000712A58F3BA17620773078407950720F0AD
:1052300079F4A6F50C94932A0EF4E0950B2EBA2F70
:10524000A02D0B01B90190010C01CA01A00111248C
:10525000FF27591B99F0593F50F4503E68F11A1638
:10526000F040A22F232F342F4427585FF3CF4695C9
:1052700037952795A795F0405395C9F77EF41F16EB
:10528000BA0B620B730B840BBAF09150A1F0FF0FB5
:10529000BB1F661F771F881FC2F70EC0BA0F621FA1
:1052A000731F841F48F4879577956795B795F79591
:1052B0009E3F08F0B0CF9395880F08F09927EE0F26
:1052C0009795879508950E94172A08F481E008951C
:1052D0000E947C290C94602A0E94592A58F00E944E
:1052E000522A40F029F45F3F29F00C943B2A5111D7
:1052F0000C94942A0C944F2A0E94712A68F39923E3
:10530000B1F3552391F3951B550BBB27AA276217C1
:105310007307840738F09F5F5F4F220F331F441FCE
:10532000AA1FA9F335D00E2E3AF0E0E832D0915002
:105330005040E695001CCAF72BD0FE2F29D0660FEF
:10534000771F881FBB1F261737074807AB07B0E832
:1053500009F0BB0B802DBF01FF2793585F4F3AF038
:105360009E3F510578F00C943B2A0C94942A5F3FA1
:10537000E4F3983ED4F3869577956795B795F795BE
:105380009F5FC9F7880F911D9695879597F90895A6
:10539000E1E0660F771F881FBB1F62177307840742
:1053A000BA0720F0621B730B840BBA0BEE1F88F751
:1053B000E0950895E89409C097FB3EF49095809598
:1053C000709561957F4F8F4F9F4F9923A9F0F92FCB
:1053D00096E9BB279395F695879577956795B79549
:1053E000F111F8CFFAF4BB0F11F460FF1BC06F5F2F
:1053F0007F4F8F4F9F4F16C0882311F096E911C041
:10540000772321F09EE8872F762F05C0662371F061
:1054100096E8862F70E060E02AF09A95660F771F75
:10542000881FDAF7880F9695879597F90895990F51
:105430000008550FAA0BE0E8FEEF16161706E8075E
:10544000F907C0F012161306E407F50798F0621B7F
:10545000730B840B950B39F40A2661F0232B242B54
:10546000252B21F408950A2609F4A140A6958FEF73
:10547000811D811D089597F99F6780E870E060E0C5
:1054800008959F3F31F0915020F487957795679567
:10549000B795880F911D9695879597F908959FEF79
:1054A00080EC089500240A941616170618060906BB
:1054B000089500240A94121613061406050608958A
:1054C000092E0394000C11F4882352F0BB0F40F412
:1054D000BF2B11F460FF04C06F5F7F4F8F4F9F4F52
:1054E000089557FD9058440F551F59F05F3F71F0D4
:1054F0004795880F97FB991F61F09F3F79F087953B
:105500000895121613061406551FF2CF4695F1DFC3
:1055100008C0161617061806991FF1CF8695710553
:10552000610508940895E894BB2766277727CB0187
:1055300097F908950E94172A08F48FEF08950E94A2
:10554000B22A0C94602A0E94522A38F00E94592AEA
:1055500020F0952311F00C943B2A0C944F2A11242F
:105560000C94942A0E94712A70F3959FC1F3950FB1
:1055700050E0551F629FF001729FBB27F00DB11DD7
:10558000639FAA27F00DB11DAA1F649F6627B00D67
:10559000A11D661F829F2227B00DA11D621F739F50
:1055A000B00DA11D621F839FA00D611D221F749F5E
:1055B0003327A00D611D231F849F600D211D822FA5
:1055C000762F6A2F11249F5750409AF0F1F08823CC
:1055D0004AF0EE0FFF1FBB1F661F771F881F9150F9
:1055E0005040A9F79E3F510580F00C943B2A0C9443
:1055F000942A5F3FE4F3983ED4F3869577956795B8
:10560000B795F795E7959F5FC1F7FE2B880F911D22
:105610009695879597F90895FA01EE0FFF1F30963A
:1056200021053105A1F16115710561F48038BFE3F1
:105630009B0749F168949038810561F08038BFEF8D
:105640009B0741F099234AF5FF3FE105310521050C
:1056500019F1E8940894E795D901AA2329F4AB2F0E
:10566000BE2FF85FD0F310C0FF5F70F4A695E0F78F
:10567000F73950F019F0FF3A38F49F779F930DD027
:105680000F9007FC9058089546F00C944F2A60E064
:1056900070E080E89FE308954FE79F775F934F9313
:1056A0003F932F930E94072C2F913F914F915F9131
:1056B0000E949F2A0C94642B29F416F00C943B2A28
:1056C0000C94932A0C944F2A0E94792AA8F39638B6
:1056D000A0F707F80F92E8942BE33AEA48EB5FE76C
:1056E0000E94B52A0F920F920F924DB75EB70F929C
:1056F0000E944F2CECEAF0E00E94962B4F915F91B4
:10570000EF91FF91E595EE1FFF1F49F0FE57E0680E
:105710004427EE0F441FFA95E1F74195550B0E947F
:10572000C92B0F9007FE0C94BD2B0895DF93CF93E8
:105730001F930F93FF92EF92DF927B018C0168948D
:1057400006C0DA2EEF010E94B22AFE01E894A5916C
:105750002591359145915591A6F3EF010E940E29AF
:10576000FE019701A801DA9469F7DF90EF90FF90AE
:105770000F911F91CF91DF9108959B01AC0160E0E3
:1057800070E080E89FE30C9468290C943B2A0C9409
:10579000412A0E94792AD8F39923C9F3940F511D05
:1057A000A3F39150504094F059F0882332F0660FE3
:1057B000771F881F91505040C1F79E3F51052CF72D
:1057C000880F911D9695879597F908955F3FACF0E6
:1057D000983E9CF0BB27869577956795B79508F41A
:1057E000B1609395C1F7BB0F58F711F460FFE8CF94
:1057F0006F5F7F4F8F4F9F4FE3CF0C94942A16F02B
:105800000C94412A0C944F2A68940C943B2A0E94D1
:10581000792AA8F39923C1F3AEF3DF93CF931F93B3
:105820000F93FF92C92FDD2788232AF02197660F57
:10583000771F881FDAF720E030E040E85FEB9FE356
:10584000883920F0803E38F021968F770E94F72823
:10585000E4EDF0E004C00E94F728E1E0F1E00E94EE
:10586000962B8B01BE01EC01FB2E6F5771097595CC
:10587000771F880B990B0E94DC2928E132E741E36E
:105880005FE30E94B22AAF2D9801AE01FF900F9105
:105890001F91CF91DF910E940E290C94602AFA018A
:1058A000DC01AA0FBB1F9B01AC01BF5728F42227C4
:1058B00033274427507820C0B75190F4AB2F0024F1
:1058C000469537952795011CA395D2F3002071F0DA
:1058D000220F331F441FB395DAF30ED00C94F62831
:1058E00061307105A0E88A07B94630F49B01AC012C
:1058F0006627772788279078309621F02083318398
:10590000428353830895AA1BBB1B51E107C0AA1F02
:10591000BB1FA617B70710F0A61BB70B881F991F50
:105920005A95A9F780959095BC01CD01089597FBF4
:10593000072E16F4009407D077FD09D00E94832C1F
:1059400007FC05D03EF4909581959F4F0895709582
:1059500061957F4F0895EE0FFF1F0590F491E02DA4
:1059600009948F929F92AF92BF92CF92DF92EF9263
:10597000FF92CF93DF93EC01688179818A819B81CB
:10598000611571058105910521F464E279ED8BE5DE
:1059900097E02DE133EF41E050E00E94BF31490133
:1059A0005A019B01AC01A7EAB1E40E94DE316B0110
:1059B0007C01ACEEB4EFA50194010E94EC31DC0156
:1059C000CB018C0D9D1DAE1DBF1DB7FF03C0019700
:1059D000A109B04888839983AA83BB839F77DF910D
:1059E000CF91FF90EF90DF90CF90BF90AF909F90BE
:1059F0008F9008950E94B12C089580E091E00E945C
:105A0000B12C0895B0E0A0E08093000190930101D3
:105A1000A0930201B09303010895B0E0A0E0E3E198
:105A2000FDE20C94F3315C016B018A016115710593
:105A300019F0FB01918380830115110551F0C80114
:105A40000297839730F040E030E020E090E0B6C06D
:105A50005E01E501F9908F2D90E00E941D2E892BAB
:105A6000B9F7FDE2FF1256C0F880E5012296EE2458
:105A7000E3940115110509F4D2C00031110509F0B4
:105A800051C020E3F21273C088818F7D883509F000
:105A9000BAC0F9802296EE2DE26000E110E0812C80
:105AA000912CA12C58E0B52E20E060E070E0CB01F5
:105AB0002801012E000C66087708F0EDFF0DFA3082
:105AC00060F03FEB3F0DF9EC3A3130F03FE93F0D2C
:105AD0003A3108F055C0F9EAFF0DF01711060CF045
